{
  "address": "0x8c45c98C0Ebe7C39CCBbe11A020EC86490b74977",
  "abi": [
    {
      "inputs": [
        {
          "internalType": "address",
          "name": "_endpoint",
          "type": "address"
        },
        {
          "internalType": "address",
          "name": "_delegate",
          "type": "address"
        }
      ],
      "stateMutability": "nonpayable",
      "type": "constructor"
    },
    {
      "inputs": [
        {
          "internalType": "address",
          "name": "target",
          "type": "address"
        }
      ],
      "name": "AddressEmptyCode",
      "type": "error"
    },
    {
      "inputs": [
        {
          "internalType": "address",
          "name": "account",
          "type": "address"
        }
      ],
      "name": "AddressInsufficientBalance",
      "type": "error"
    },
    {
      "inputs": [],
      "name": "FailedInnerCall",
      "type": "error"
    },
    {
      "inputs": [],
      "name": "InvalidDelegate",
      "type": "error"
    },
    {
      "inputs": [],
      "name": "InvalidEndpointCall",
      "type": "error"
    },
    {
      "inputs": [],
      "name": "LzTokenUnavailable",
      "type": "error"
    },
    {
      "inputs": [
        {
          "internalType": "uint32",
          "name": "eid",
          "type": "uint32"
        }
      ],
      "name": "NoPeer",
      "type": "error"
    },
    {
      "inputs": [
        {
          "internalType": "uint256",
          "name": "msgValue",
          "type": "uint256"
        }
      ],
      "name": "NotEnoughNative",
      "type": "error"
    },
    {
      "inputs": [
        {
          "internalType": "address",
          "name": "addr",
          "type": "address"
        }
      ],
      "name": "OnlyEndpoint",
      "type": "error"
    },
    {
      "inputs": [
        {
          "internalType": "uint32",
          "name": "eid",
          "type": "uint32"
        },
        {
          "internalType": "bytes32",
          "name": "sender",
          "type": "bytes32"
        }
      ],
      "name": "OnlyPeer",
      "type": "error"
    },
    {
      "inputs": [
        {
          "internalType": "address",
          "name": "owner",
          "type": "address"
        }
      ],
      "name": "OwnableInvalidOwner",
      "type": "error"
    },
    {
      "inputs": [
        {
          "internalType": "address",
          "name": "account",
          "type": "address"
        }
      ],
      "name": "OwnableUnauthorizedAccount",
      "type": "error"
    },
    {
      "inputs": [
        {
          "internalType": "address",
          "name": "token",
          "type": "address"
        }
      ],
      "name": "SafeERC20FailedOperation",
      "type": "error"
    },
    {
      "anonymous": false,
      "inputs": [
        {
          "indexed": true,
          "internalType": "address",
          "name": "previousOwner",
          "type": "address"
        },
        {
          "indexed": true,
          "internalType": "address",
          "name": "newOwner",
          "type": "address"
        }
      ],
      "name": "OwnershipTransferred",
      "type": "event"
    },
    {
      "anonymous": false,
      "inputs": [
        {
          "indexed": false,
          "internalType": "uint32",
          "name": "eid",
          "type": "uint32"
        },
        {
          "indexed": false,
          "internalType": "bytes32",
          "name": "peer",
          "type": "bytes32"
        }
      ],
      "name": "PeerSet",
      "type": "event"
    },
    {
      "inputs": [
        {
          "components": [
            {
              "internalType": "uint32",
              "name": "srcEid",
              "type": "uint32"
            },
            {
              "internalType": "bytes32",
              "name": "sender",
              "type": "bytes32"
            },
            {
              "internalType": "uint64",
              "name": "nonce",
              "type": "uint64"
            }
          ],
          "internalType": "struct Origin",
          "name": "origin",
          "type": "tuple"
        }
      ],
      "name": "allowInitializePath",
      "outputs": [
        {
          "internalType": "bool",
          "name": "",
          "type": "bool"
        }
      ],
      "stateMutability": "view",
      "type": "function"
    },
    {
      "inputs": [
        {
          "internalType": "string",
          "name": "_name",
          "type": "string"
        },
        {
          "internalType": "string",
          "name": "_description",
          "type": "string"
        }
      ],
      "name": "createProject",
      "outputs": [],
      "stateMutability": "nonpayable",
      "type": "function"
    },
    {
      "inputs": [],
      "name": "endpoint",
      "outputs": [
        {
          "internalType": "contract ILayerZeroEndpointV2",
          "name": "",
          "type": "address"
        }
      ],
      "stateMutability": "view",
      "type": "function"
    },
    {
      "inputs": [],
      "name": "getProjects",
      "outputs": [
        {
          "components": [
            {
              "internalType": "string",
              "name": "name",
              "type": "string"
            },
            {
              "internalType": "string",
              "name": "description",
              "type": "string"
            },
            {
              "internalType": "address",
              "name": "owner",
              "type": "address"
            },
            {
              "internalType": "uint256",
              "name": "createdAt",
              "type": "uint256"
            }
          ],
          "internalType": "struct ProjectManagement.Project[]",
          "name": "",
          "type": "tuple[]"
        }
      ],
      "stateMutability": "view",
      "type": "function"
    },
    {
      "inputs": [
        {
          "components": [
            {
              "internalType": "uint32",
              "name": "srcEid",
              "type": "uint32"
            },
            {
              "internalType": "bytes32",
              "name": "sender",
              "type": "bytes32"
            },
            {
              "internalType": "uint64",
              "name": "nonce",
              "type": "uint64"
            }
          ],
          "internalType": "struct Origin",
          "name": "",
          "type": "tuple"
        },
        {
          "internalType": "bytes",
          "name": "",
          "type": "bytes"
        },
        {
          "internalType": "address",
          "name": "_sender",
          "type": "address"
        }
      ],
      "name": "isComposeMsgSender",
      "outputs": [
        {
          "internalType": "bool",
          "name": "",
          "type": "bool"
        }
      ],
      "stateMutability": "view",
      "type": "function"
    },
    {
      "inputs": [
        {
          "components": [
            {
              "internalType": "uint32",
              "name": "srcEid",
              "type": "uint32"
            },
            {
              "internalType": "bytes32",
              "name": "sender",
              "type": "bytes32"
            },
            {
              "internalType": "uint64",
              "name": "nonce",
              "type": "uint64"
            }
          ],
          "internalType": "struct Origin",
          "name": "_origin",
          "type": "tuple"
        },
        {
          "internalType": "bytes32",
          "name": "_guid",
          "type": "bytes32"
        },
        {
          "internalType": "bytes",
          "name": "_message",
          "type": "bytes"
        },
        {
          "internalType": "address",
          "name": "_executor",
          "type": "address"
        },
        {
          "internalType": "bytes",
          "name": "_extraData",
          "type": "bytes"
        }
      ],
      "name": "lzReceive",
      "outputs": [],
      "stateMutability": "payable",
      "type": "function"
    },
    {
      "inputs": [
        {
          "internalType": "uint32",
          "name": "",
          "type": "uint32"
        },
        {
          "internalType": "bytes32",
          "name": "",
          "type": "bytes32"
        }
      ],
      "name": "nextNonce",
      "outputs": [
        {
          "internalType": "uint64",
          "name": "nonce",
          "type": "uint64"
        }
      ],
      "stateMutability": "view",
      "type": "function"
    },
    {
      "inputs": [],
      "name": "oAppVersion",
      "outputs": [
        {
          "internalType": "uint64",
          "name": "senderVersion",
          "type": "uint64"
        },
        {
          "internalType": "uint64",
          "name": "receiverVersion",
          "type": "uint64"
        }
      ],
      "stateMutability": "pure",
      "type": "function"
    },
    {
      "inputs": [],
      "name": "owner",
      "outputs": [
        {
          "internalType": "address",
          "name": "",
          "type": "address"
        }
      ],
      "stateMutability": "view",
      "type": "function"
    },
    {
      "inputs": [
        {
          "internalType": "uint32",
          "name": "eid",
          "type": "uint32"
        }
      ],
      "name": "peers",
      "outputs": [
        {
          "internalType": "bytes32",
          "name": "peer",
          "type": "bytes32"
        }
      ],
      "stateMutability": "view",
      "type": "function"
    },
    {
      "inputs": [
        {
          "internalType": "uint256",
          "name": "",
          "type": "uint256"
        }
      ],
      "name": "projects",
      "outputs": [
        {
          "internalType": "string",
          "name": "name",
          "type": "string"
        },
        {
          "internalType": "string",
          "name": "description",
          "type": "string"
        },
        {
          "internalType": "address",
          "name": "owner",
          "type": "address"
        },
        {
          "internalType": "uint256",
          "name": "createdAt",
          "type": "uint256"
        }
      ],
      "stateMutability": "view",
      "type": "function"
    },
    {
      "inputs": [],
      "name": "renounceOwnership",
      "outputs": [],
      "stateMutability": "nonpayable",
      "type": "function"
    },
    {
      "inputs": [
        {
          "internalType": "uint32",
          "name": "_dstEid",
          "type": "uint32"
        },
        {
          "internalType": "uint256",
          "name": "_projectIndex",
          "type": "uint256"
        },
        {
          "internalType": "bytes",
          "name": "_options",
          "type": "bytes"
        }
      ],
      "name": "sendProject",
      "outputs": [
        {
          "components": [
            {
              "internalType": "bytes32",
              "name": "guid",
              "type": "bytes32"
            },
            {
              "internalType": "uint64",
              "name": "nonce",
              "type": "uint64"
            },
            {
              "components": [
                {
                  "internalType": "uint256",
                  "name": "nativeFee",
                  "type": "uint256"
                },
                {
                  "internalType": "uint256",
                  "name": "lzTokenFee",
                  "type": "uint256"
                }
              ],
              "internalType": "struct MessagingFee",
              "name": "fee",
              "type": "tuple"
            }
          ],
          "internalType": "struct MessagingReceipt",
          "name": "receipt",
          "type": "tuple"
        }
      ],
      "stateMutability": "payable",
      "type": "function"
    },
    {
      "inputs": [
        {
          "internalType": "address",
          "name": "_delegate",
          "type": "address"
        }
      ],
      "name": "setDelegate",
      "outputs": [],
      "stateMutability": "nonpayable",
      "type": "function"
    },
    {
      "inputs": [
        {
          "internalType": "uint32",
          "name": "_eid",
          "type": "uint32"
        },
        {
          "internalType": "bytes32",
          "name": "_peer",
          "type": "bytes32"
        }
      ],
      "name": "setPeer",
      "outputs": [],
      "stateMutability": "nonpayable",
      "type": "function"
    },
    {
      "inputs": [
        {
          "internalType": "address",
          "name": "newOwner",
          "type": "address"
        }
      ],
      "name": "transferOwnership",
      "outputs": [],
      "stateMutability": "nonpayable",
      "type": "function"
    }
  ],
  "transactionHash": "0x80995b57697314cb875223685cab937fed8f47c8451a0140fc2ea2eac39e51da",
  "args": [
    "0x1a44076050125825900e736c501f859c50fE728c",
    "0x5635ca9E0ea58a2C4E10927405aFe59cEB420EdD"
  ],
  "numDeployments": 1,
  "solcInputHash": "adc776108fe54c38c47bf45d32b3f69b",
  "bytecode": "0x60a06040523480156200001157600080fd5b5060405162001c2b38038062001c2b83398101604081905262000034916200017c565b81818181806001600160a01b0381166200006857604051631e4fbdf760e01b81526000600482015260240160405180910390fd5b62000073816200010f565b506001600160a01b038083166080528116620000a257604051632d618d8160e21b815260040160405180910390fd5b60805160405163ca5eb5e160e01b81526001600160a01b0383811660048301529091169063ca5eb5e190602401600060405180830381600087803b158015620000ea57600080fd5b505af1158015620000ff573d6000803e3d6000fd5b50505050505050505050620001b4565b600080546001600160a01b038381166001600160a01b0319831681178455604051919092169283917f8be0079c531659141344cd1fd0a4f28419497f9722a3daafe3b4186f6b6457e09190a35050565b80516001600160a01b03811681146200017757600080fd5b919050565b600080604083850312156200019057600080fd5b6200019b836200015f565b9150620001ab602084016200015f565b90509250929050565b608051611a38620001f36000396000818161019a015281816105050152818161092401528181610dc801528181610ec10152610f780152611a386000f3fe6080604052600436106100f35760003560e01c806382413eac1161008a578063ca5eb5e111610059578063ca5eb5e114610327578063dcc6012814610347578063f2fde38b14610369578063ff7bd03d1461038957600080fd5b806382413eac14610244578063868e179d146102835780638da5cb5b146102ce578063bb0b6a53146102ec57600080fd5b80635e280f11116100c65780635e280f11146101885780636bd06204146101d4578063715018a6146101f45780637d25a05e1461020957600080fd5b8063107046bd146100f857806313137d651461013157806317442b70146101465780633400288b14610168575b600080fd5b34801561010457600080fd5b506101186101133660046111db565b6103a9565b6040516101289493929190611244565b60405180910390f35b61014461013f3660046112fb565b610503565b005b34801561015257600080fd5b5060408051600181526002602082015201610128565b34801561017457600080fd5b506101446101833660046113b3565b6105c3565b34801561019457600080fd5b506101bc7f000000000000000000000000000000000000000000000000000000000000000081565b6040516001600160a01b039091168152602001610128565b3480156101e057600080fd5b506101446101ef3660046114a7565b6105d9565b34801561020057600080fd5b5061014461068d565b34801561021557600080fd5b5061022c6102243660046113b3565b600092915050565b6040516001600160401b039091168152602001610128565b34801561025057600080fd5b5061027361025f36600461150a565b6001600160a01b0381163014949350505050565b6040519015158152602001610128565b610296610291366004611570565b6106a1565b60408051825181526020808401516001600160401b031681830152928201518051928201929092529101516060820152608001610128565b3480156102da57600080fd5b506000546001600160a01b03166101bc565b3480156102f857600080fd5b506103196103073660046115c9565b60016020526000908152604090205481565b604051908152602001610128565b34801561033357600080fd5b506101446103423660046115e4565b6108fd565b34801561035357600080fd5b5061035c610983565b6040516101289190611601565b34801561037557600080fd5b506101446103843660046115e4565b610b29565b34801561039557600080fd5b506102736103a43660046116a7565b610b67565b600281815481106103b957600080fd5b90600052602060002090600402016000915090508060000180546103dc906116c3565b80601f0160208091040260200160405190810160405280929190818152602001828054610408906116c3565b80156104555780601f1061042a57610100808354040283529160200191610455565b820191906000526020600020905b81548152906001019060200180831161043857829003601f168201915b50505050509080600101805461046a906116c3565b80601f0160208091040260200160405190810160405280929190818152602001828054610496906116c3565b80156104e35780601f106104b8576101008083540402835291602001916104e3565b820191906000526020600020905b8154815290600101906020018083116104c657829003601f168201915b50505050600283015460039093015491926001600160a01b031691905084565b7f00000000000000000000000000000000000000000000000000000000000000006001600160a01b03163314610553576040516391ac5e4f60e01b81523360048201526024015b60405180910390fd5b6020870180359061056d90610568908a6115c9565b610b9d565b146105ab5761057f60208801886115c9565b60405163309afaf360e21b815263ffffffff90911660048201526020880135602482015260440161054a565b6105ba87878787878787610bdf565b50505050505050565b6105cb610cc3565b6105d58282610cf0565b5050565b6040805160808101825283815260208101839052339181019190915242606082015260028054600181018255600091909152815160049091027f405787fa12a823e0f2b7631cc41b3ba8828b3321ca811111fa75cd3aa3bb5ace019081906106419082611747565b50602082015160018201906106569082611747565b5060408201516002820180546001600160a01b0319166001600160a01b039092169190911790556060909101516003909101555050565b610695610cc3565b61069f6000610d45565b565b6106a9611194565b60025484106106f25760405162461bcd60e51b8152602060048201526015602482015274092dcecc2d8d2c840e0e4ded4cac6e840d2dcc8caf605b1b604482015260640161054a565b60006002858154811061070757610707611806565b9060005260206000209060040201604051806080016040529081600082018054610730906116c3565b80601f016020809104026020016040519081016040528092919081815260200182805461075c906116c3565b80156107a95780601f1061077e576101008083540402835291602001916107a9565b820191906000526020600020905b81548152906001019060200180831161078c57829003601f168201915b505050505081526020016001820180546107c2906116c3565b80601f01602080910402602001604051908101604052809291908181526020018280546107ee906116c3565b801561083b5780601f106108105761010080835404028352916020019161083b565b820191906000526020600020905b81548152906001019060200180831161081e57829003601f168201915b505050918352505060028201546001600160a01b0316602080830191909152600390920154604091820152825183830151848301516060860151935195965060009561088e959394929391929101611244565b60408051601f198184030181526020601f880181900481028401810190925286835292506108f2918991849190899089908190840183828082843760009201829052506040805180820190915234815260208101919091529250339150610d959050565b979650505050505050565b610905610cc3565b60405163ca5eb5e160e01b81526001600160a01b0382811660048301527f0000000000000000000000000000000000000000000000000000000000000000169063ca5eb5e190602401600060405180830381600087803b15801561096857600080fd5b505af115801561097c573d6000803e3d6000fd5b5050505050565b60606002805480602002602001604051908101604052809291908181526020016000905b82821015610b2057838290600052602060002090600402016040518060800160405290816000820180546109da906116c3565b80601f0160208091040260200160405190810160405280929190818152602001828054610a06906116c3565b8015610a535780601f10610a2857610100808354040283529160200191610a53565b820191906000526020600020905b815481529060010190602001808311610a3657829003601f168201915b50505050508152602001600182018054610a6c906116c3565b80601f0160208091040260200160405190810160405280929190818152602001828054610a98906116c3565b8015610ae55780601f10610aba57610100808354040283529160200191610ae5565b820191906000526020600020905b815481529060010190602001808311610ac857829003601f168201915b505050918352505060028201546001600160a01b031660208083019190915260039092015460409091015290825260019290920191016109a7565b50505050905090565b610b31610cc3565b6001600160a01b038116610b5b57604051631e4fbdf760e01b81526000600482015260240161054a565b610b6481610d45565b50565b6000602082018035906001908390610b7f90866115c9565b63ffffffff1681526020810191909152604001600020541492915050565b63ffffffff811660009081526001602052604081205480610bd95760405163f6ff4fb760e01b815263ffffffff8416600482015260240161054a565b92915050565b6000808080610bf0888a018a61181c565b60408051608081018252858152602081018590526001600160a01b038416918101919091526060810182905260028054600181018255600091909152815195995093975091955093509160049091027f405787fa12a823e0f2b7631cc41b3ba8828b3321ca811111fa75cd3aa3bb5ace01908190610c6e9082611747565b5060208201516001820190610c839082611747565b5060408201516002820180546001600160a01b0319166001600160a01b039092169190911790556060909101516003909101555050505050505050505050565b6000546001600160a01b0316331461069f5760405163118cdaa760e01b815233600482015260240161054a565b63ffffffff8216600081815260016020908152604091829020849055815192835282018390527f238399d427b947898edb290f5ff0f9109849b1c3ba196a42e35f00c50a54b98b910160405180910390a15050565b600080546001600160a01b038381166001600160a01b0319831681178455604051919092169283917f8be0079c531659141344cd1fd0a4f28419497f9722a3daafe3b4186f6b6457e09190a35050565b610d9d611194565b6000610dac8460000151610e95565b602085015190915015610dc657610dc68460200151610ebd565b7f00000000000000000000000000000000000000000000000000000000000000006001600160a01b0316632637a450826040518060a001604052808b63ffffffff168152602001610e168c610b9d565b81526020018a815260200189815260200160008960200151111515815250866040518463ffffffff1660e01b8152600401610e52929190611899565b60806040518083038185885af1158015610e70573d6000803e3d6000fd5b50505050506040513d601f19601f820116820180604052508101906108f29190611912565b6000813414610eb9576040516304fb820960e51b815234600482015260240161054a565b5090565b60007f00000000000000000000000000000000000000000000000000000000000000006001600160a01b031663e4fe1d946040518163ffffffff1660e01b8152600401602060405180830381865afa158015610f1d573d6000803e3d6000fd5b505050506040513d601f19601f82011682018060405250810190610f4191906119a7565b90506001600160a01b038116610f6a576040516329b99a9560e11b815260040160405180910390fd5b6040805133602482018190527f00000000000000000000000000000000000000000000000000000000000000006001600160a01b03818116604485015260648085018890528551808603909101815260849094019094526020830180516001600160e01b03166323b872dd60e01b1790526105d5938516928690610fef908590610ff5565b50505050565b600061100a6001600160a01b0384168361105d565b9050805160001415801561102f57508080602001905181019061102d91906119c4565b155b1561105857604051635274afe760e01b81526001600160a01b038416600482015260240161054a565b505050565b606061106b83836000611072565b9392505050565b6060814710156110975760405163cd78605960e01b815230600482015260240161054a565b600080856001600160a01b031684866040516110b391906119e6565b60006040518083038185875af1925050503d80600081146110f0576040519150601f19603f3d011682016040523d82523d6000602084013e6110f5565b606091505b509150915061110586838361110f565b9695505050505050565b6060826111245761111f8261116b565b61106b565b815115801561113b57506001600160a01b0384163b155b1561116457604051639996b31560e01b81526001600160a01b038516600482015260240161054a565b508061106b565b80511561117b5780518082602001fd5b604051630a12f52160e11b815260040160405180910390fd5b60405180606001604052806000801916815260200160006001600160401b031681526020016111d6604051806040016040528060008152602001600081525090565b905290565b6000602082840312156111ed57600080fd5b5035919050565b60005b8381101561120f5781810151838201526020016111f7565b50506000910152565b600081518084526112308160208601602086016111f4565b601f01601f19169290920160200192915050565b6080815260006112576080830187611218565b82810360208401526112698187611218565b6001600160a01b0395909516604084015250506060015292915050565b60006060828403121561129857600080fd5b50919050565b60008083601f8401126112b057600080fd5b5081356001600160401b038111156112c757600080fd5b6020830191508360208285010111156112df57600080fd5b9250929050565b6001600160a01b0381168114610b6457600080fd5b600080600080600080600060e0888a03121561131657600080fd5b6113208989611286565b96506060880135955060808801356001600160401b038082111561134357600080fd5b61134f8b838c0161129e565b909750955060a08a01359150611364826112e6565b90935060c0890135908082111561137a57600080fd5b506113878a828b0161129e565b989b979a50959850939692959293505050565b803563ffffffff811681146113ae57600080fd5b919050565b600080604083850312156113c657600080fd5b6113cf8361139a565b946020939093013593505050565b634e487b7160e01b600052604160045260246000fd5b604080519081016001600160401b0381118282101715611415576114156113dd565b60405290565b600082601f83011261142c57600080fd5b81356001600160401b0380821115611446576114466113dd565b604051601f8301601f19908116603f0116810190828211818310171561146e5761146e6113dd565b8160405283815286602085880101111561148757600080fd5b836020870160208301376000602085830101528094505050505092915050565b600080604083850312156114ba57600080fd5b82356001600160401b03808211156114d157600080fd5b6114dd8683870161141b565b935060208501359150808211156114f357600080fd5b506115008582860161141b565b9150509250929050565b60008060008060a0858703121561152057600080fd5b61152a8686611286565b935060608501356001600160401b0381111561154557600080fd5b6115518782880161129e565b9094509250506080850135611565816112e6565b939692955090935050565b6000806000806060858703121561158657600080fd5b61158f8561139a565b93506020850135925060408501356001600160401b038111156115b157600080fd5b6115bd8782880161129e565b95989497509550505050565b6000602082840312156115db57600080fd5b61106b8261139a565b6000602082840312156115f657600080fd5b813561106b816112e6565b600060208083018184528085518083526040925060408601915060408160051b87010184880160005b8381101561169957603f1989840301855281516080815181865261165082870182611218565b915050888201518582038a8701526116688282611218565b838a01516001600160a01b0316878b015260609384015193909601929092525050938601939086019060010161162a565b509098975050505050505050565b6000606082840312156116b957600080fd5b61106b8383611286565b600181811c908216806116d757607f821691505b60208210810361129857634e487b7160e01b600052602260045260246000fd5b601f821115611058576000816000526020600020601f850160051c810160208610156117205750805b601f850160051c820191505b8181101561173f5782815560010161172c565b505050505050565b81516001600160401b03811115611760576117606113dd565b6117748161176e84546116c3565b846116f7565b602080601f8311600181146117a957600084156117915750858301515b600019600386901b1c1916600185901b17855561173f565b600085815260208120601f198616915b828110156117d8578886015182559484019460019091019084016117b9565b50858210156117f65787850151600019600388901b60f8161c191681555b5050505050600190811b01905550565b634e487b7160e01b600052603260045260246000fd5b6000806000806080858703121561183257600080fd5b84356001600160401b038082111561184957600080fd5b6118558883890161141b565b9550602087013591508082111561186b57600080fd5b506118788782880161141b565b9350506040850135611889816112e6565b9396929550929360600135925050565b6040815263ffffffff8351166040820152602083015160608201526000604084015160a060808401526118cf60e0840182611218565b90506060850151603f198483030160a08501526118ec8282611218565b60809690960151151560c08501525050506001600160a01b039190911660209091015290565b6000818303608081121561192557600080fd5b604051606081016001600160401b038282108183111715611948576119486113dd565b816040528551835260208601519150808216821461196557600080fd5b5060208201526040603f198301121561197d57600080fd5b6119856113f3565b6040858101518252606090950151602082015293810193909352509092915050565b6000602082840312156119b957600080fd5b815161106b816112e6565b6000602082840312156119d657600080fd5b8151801515811461106b57600080fd5b600082516119f88184602087016111f4565b919091019291505056fea264697066735822122059939af173c5166d6208cc8307e0a5b82f2d8e4621c844bc5e5ca39c7468fbc564736f6c63430008160033",
  "devdoc": {
    "errors": {
      "AddressEmptyCode(address)": [
        {
          "details": "There's no code at `target` (it is not a contract)."
        }
      ],
      "AddressInsufficientBalance(address)": [
        {
          "details": "The ETH balance of the account is not enough to perform the operation."
        }
      ],
      "FailedInnerCall()": [
        {
          "details": "A call to an address target failed. The target may have reverted."
        }
      ],
      "OwnableInvalidOwner(address)": [
        {
          "details": "The owner is not a valid owner account. (eg. `address(0)`)"
        }
      ],
      "OwnableUnauthorizedAccount(address)": [
        {
          "details": "The caller account is not authorized to perform an operation."
        }
      ],
      "SafeERC20FailedOperation(address)": [
        {
          "details": "An operation with an ERC20 token failed."
        }
      ]
    },
    "kind": "dev",
    "methods": {
      "allowInitializePath((uint32,bytes32,uint64))": {
        "details": "This indicates to the endpoint that the OApp has enabled msgs for this particular path to be received.This defaults to assuming if a peer has been set, its initialized. Can be overridden by the OApp if there is other logic to determine this.",
        "params": {
          "origin": "The origin information containing the source endpoint and sender address."
        },
        "returns": {
          "_0": "Whether the path has been initialized."
        }
      },
      "isComposeMsgSender((uint32,bytes32,uint64),bytes,address)": {
        "details": "_origin The origin information containing the source endpoint and sender address.  - srcEid: The source chain endpoint ID.  - sender: The sender address on the src chain.  - nonce: The nonce of the message._message The lzReceive payload.Applications can optionally choose to implement separate composeMsg senders that are NOT the bridging layer.The default sender IS the OAppReceiver implementer.",
        "params": {
          "_sender": "The sender address."
        },
        "returns": {
          "_0": "isSender Is a valid sender."
        }
      },
      "lzReceive((uint32,bytes32,uint64),bytes32,bytes,address,bytes)": {
        "details": "Entry point for receiving messages or packets from the endpoint.Entry point for receiving msg/packet from the LayerZero endpoint.",
        "params": {
          "_executor": "The address of the executor for the received message.",
          "_extraData": "Additional arbitrary data provided by the corresponding executor.",
          "_guid": "The unique identifier for the received LayerZero message.",
          "_message": "The payload of the received message.",
          "_origin": "The origin information containing the source endpoint and sender address.  - srcEid: The source chain endpoint ID.  - sender: The sender address on the src chain.  - nonce: The nonce of the message."
        }
      },
      "nextNonce(uint32,bytes32)": {
        "details": "_srcEid The source endpoint ID._sender The sender address.The path nonce starts from 1. If 0 is returned it means that there is NO nonce ordered enforcement.Is required by the off-chain executor to determine the OApp expects msg execution is ordered.This is also enforced by the OApp.By default this is NOT enabled. ie. nextNonce is hardcoded to return 0.",
        "returns": {
          "nonce": "The next nonce."
        }
      },
      "oAppVersion()": {
        "returns": {
          "receiverVersion": "The version of the OAppReceiver.sol implementation.",
          "senderVersion": "The version of the OAppSender.sol implementation."
        }
      },
      "owner()": {
        "details": "Returns the address of the current owner."
      },
      "renounceOwnership()": {
        "details": "Leaves the contract without owner. It will not be possible to call `onlyOwner` functions. Can only be called by the current owner. NOTE: Renouncing ownership will leave the contract without an owner, thereby disabling any functionality that is only available to the owner."
      },
      "setDelegate(address)": {
        "details": "Only the owner/admin of the OApp can call this function.Provides the ability for a delegate to set configs, on behalf of the OApp, directly on the Endpoint contract.",
        "params": {
          "_delegate": "The address of the delegate to be set."
        }
      },
      "setPeer(uint32,bytes32)": {
        "details": "Only the owner/admin of the OApp can call this function.Indicates that the peer is trusted to send LayerZero messages to this OApp.Set this to bytes32(0) to remove the peer address.Peer is a bytes32 to accommodate non-evm chains.",
        "params": {
          "_eid": "The endpoint ID.",
          "_peer": "The address of the peer to be associated with the corresponding endpoint."
        }
      },
      "transferOwnership(address)": {
        "details": "Transfers ownership of the contract to a new account (`newOwner`). Can only be called by the current owner."
      }
    },
    "version": 1
  },
  "userdoc": {
    "kind": "user",
    "methods": {
      "allowInitializePath((uint32,bytes32,uint64))": {
        "notice": "Checks if the path initialization is allowed based on the provided origin."
      },
      "endpoint()": {
        "notice": "Retrieves the LayerZero endpoint associated with the OApp."
      },
      "isComposeMsgSender((uint32,bytes32,uint64),bytes,address)": {
        "notice": "Indicates whether an address is an approved composeMsg sender to the Endpoint."
      },
      "nextNonce(uint32,bytes32)": {
        "notice": "Retrieves the next nonce for a given source endpoint and sender address."
      },
      "oAppVersion()": {
        "notice": "Retrieves the OApp version information."
      },
      "peers(uint32)": {
        "notice": "Retrieves the peer (OApp) associated with a corresponding endpoint."
      },
      "setDelegate(address)": {
        "notice": "Sets the delegate address for the OApp."
      },
      "setPeer(uint32,bytes32)": {
        "notice": "Sets the peer address (OApp instance) for a corresponding endpoint."
      }
    },
    "version": 1
  },
  "storageLayout": {
    "storage": [
      {
        "astId": 1327,
        "contract": "contracts/ProjectManagement.sol:ProjectManagement",
        "label": "_owner",
        "offset": 0,
        "slot": "0",
        "type": "t_address"
      },
      {
        "astId": 64,
        "contract": "contracts/ProjectManagement.sol:ProjectManagement",
        "label": "peers",
        "offset": 0,
        "slot": "1",
        "type": "t_mapping(t_uint32,t_bytes32)"
      },
      {
        "astId": 2178,
        "contract": "contracts/ProjectManagement.sol:ProjectManagement",
        "label": "projects",
        "offset": 0,
        "slot": "2",
        "type": "t_array(t_struct(Project)2174_storage)dyn_storage"
      }
    ],
    "types": {
      "t_address": {
        "encoding": "inplace",
        "label": "address",
        "numberOfBytes": "20"
      },
      "t_array(t_struct(Project)2174_storage)dyn_storage": {
        "base": "t_struct(Project)2174_storage",
        "encoding": "dynamic_array",
        "label": "struct ProjectManagement.Project[]",
        "numberOfBytes": "32"
      },
      "t_bytes32": {
        "encoding": "inplace",
        "label": "bytes32",
        "numberOfBytes": "32"
      },
      "t_mapping(t_uint32,t_bytes32)": {
        "encoding": "mapping",
        "key": "t_uint32",
        "label": "mapping(uint32 => bytes32)",
        "numberOfBytes": "32",
        "value": "t_bytes32"
      },
      "t_string_storage": {
        "encoding": "bytes",
        "label": "string",
        "numberOfBytes": "32"
      },
      "t_struct(Project)2174_storage": {
        "encoding": "inplace",
        "label": "struct ProjectManagement.Project",
        "members": [
          {
            "astId": 2167,
            "contract": "contracts/ProjectManagement.sol:ProjectManagement",
            "label": "name",
            "offset": 0,
            "slot": "0",
            "type": "t_string_storage"
          },
          {
            "astId": 2169,
            "contract": "contracts/ProjectManagement.sol:ProjectManagement",
            "label": "description",
            "offset": 0,
            "slot": "1",
            "type": "t_string_storage"
          },
          {
            "astId": 2171,
            "contract": "contracts/ProjectManagement.sol:ProjectManagement",
            "label": "owner",
            "offset": 0,
            "slot": "2",
            "type": "t_address"
          },
          {
            "astId": 2173,
            "contract": "contracts/ProjectManagement.sol:ProjectManagement",
            "label": "createdAt",
            "offset": 0,
            "slot": "3",
            "type": "t_uint256"
          }
        ],
        "numberOfBytes": "128"
      },
      "t_uint256": {
        "encoding": "inplace",
        "label": "uint256",
        "numberOfBytes": "32"
      },
      "t_uint32": {
        "encoding": "inplace",
        "label": "uint32",
        "numberOfBytes": "4"
      }
    }
  }
}